:020000040800F2
:1000000068070020D5010008D9010008DB010008BD
:10001000DD010008DF010008E10100080000000028
:10002000000000000000000000000000E3010008E4
:10003000E501000800000000E7010008E9010008F0
:10004000EB010008EB010008EB010008EB010008E0
:10005000EB010008EB010008EB010008EB010008D0
:10006000EB010008EB010008EB010008EB010008C0
:10007000EB010008EB010008EB010008EB010008B0
:10008000EB010008EB010008EB010008EB010008A0
:10009000EB010008EB010008EB010008EB01000890
:1000A000EB010008EB010008EB010008EB01000880
:1000B000EB010008EB010008EB010008EB01000870
:1000C000EB010008EB010008EB010008EB01000860
:1000D000EB0100080D580008EB010008EB010008D7
:1000E000EB010008EB010008EB010008EB01000840
:1000F000EB010008EB010008EB010008EB01000830
:10010000EB010008EB010008EB010008EB0100081F
:10011000EB010008EB010008EB010008EB0100080F
:10012000EB010008EB010008EB010008EB010008FF
:1001300000F002F800F03FF80AA090E8000C8244BA
:100140008344AAF10107DA4501D100F034F8AFF297
:10015000090EBAE80F0013F0010F18BFFB1A43F0A5
:1001600001031847F8790000187A0000103A24BFFC
:1001700078C878C1FAD8520724BF30C830C144BF0C
:1001800004680C607047000000230024002500264E
:10019000103A28BF78C1FBD8520728BF30C148BFEA
:1001A0000B607047782900F07B80002070471FB5F6
:1001B0001FBD10B510BD00F0CDF91146FFF7F7FFD8
:1001C00005F0DAFB00F0EBF903B4FFF7F2FF03BC34
:1001D00005F065FB08480047FEE7FEE7FEE7FEE79F
:1001E000FEE7FEE7FEE7FEE7FEE7FEE70348044919
:1001F000044A054B704700003101000868010020E7
:100200006807002068030020680300207047000092
:100210000FB4044910B503AA029800F085F910BC88
:100220005DF814FB040000200FB41CB5074B06AAB0
:100230007B4469460090059800F05DF9002069460E
:1002400000F06CF91CBC5DF814FB0000E902000032
:1002500070B5044685690068C10601D5302600E006
:100260002026C00707D070BDD4E901213046904751
:10027000206A401C20626D1EF6D570BD70B5044624
:1002800085690078C00707D170BDD4E9012120201D
:100290009047206A401C20626D1EF6D570BD00009C
:1002A00070B504460D4621461068AFF300802188E2
:1002B000090502D50F4A7A4402E00E4A7A440E320A
:1002C000002104F1240305E000F00F060009965D0B
:1002D0005E54491C0028F7D120780023000704D57C
:1002E000702D02D009B1022311322046BDE87040C2
:1002F00000F0A2B8687800002DE9F05F8946044656
:100300004FF0000ADFF824B1FB44C0F820A02046DB
:10031000E168884700287DD0252806D0D4E901214E
:100320009047206A401C2062F1E700255F46204686
:10033000E16888472028064607DB312E05D2B81928
:1003400010F8200C08B10543F1E7A80701D525F006
:100350000405C4F81CA00027C4F818A02A2E09D050
:10036000304605F095FA38B304EB8708303EC8F8FC
:10037000186019E059F8041B204604EB87029161CC
:10038000E1688847012F064618D1E069002820DA85
:1003900025F020051DE0D8F8180000EB800006EBE2
:1003A00040003038C8F818002046E1688847064603
:1003B00005F06EFA0028EED1012F0AD02E2E08D1BA
:1003C0002046E16888477F1C0646022F45F020053D
:1003D000C4DBA069002803DA404245F00105A061B2
:1003E000E80701D025F01005A6B1A6F141001928B3
:1003F00002D8203645F400654A463146204625603D
:100400004D46FFF7CFFE60B1012807D0ED1D25F066
:10041000070000E007E000F1080978E705F10409AA
:1004200075E730467AE7206ABDE8F09F3E78000025
:1004300070477047704770472DE9F0470D46994661
:100440009246044600F124080168880604D5E06954
:1004500021F01001216000E00120A84201DD471BCE
:1004600000E00027A1697A1902EB0900081AA061CF
:100470002078C00602D42046FFF7EAFE002608E0F6
:10048000D4E901211AF806009047206A401C761C26
:1004900020624E45F4DB2078C0060AD52046FFF7DF
:1004A000D7FE06E0D4E9012130209047206A401CA5
:1004B0002062381EA7F10107F4DC07E0D4E901212E
:1004C00018F805009047206A401C2062281EA5F1FC
:1004D0000105F3DC2046FFF7D1FE2078000602D5A7
:1004E0000220BDE8F0870120FBE7000001694A1CFB
:1004F00002610878704700B58FB0CDE90131002165
:10050000059105497944CDE9031011466846FFF786
:10051000F3FE0FB000BD0000E5FFFFFF0A6802F820
:10052000010B0A6070470000074B70B50D467B4415
:10053000FFF7E1FF0446284600F008F810B14FF03D
:10054000FF3070BD204670BD2B540000007B00F0D2
:1005500080007047754600F029F8AE4605006946F0
:10056000534620F00700854618B020B5FFF73EFE41
:10057000BDE820404FF000064FF000074FF00008A4
:100580004FF0000B21F00701AC46ACE8C009ACE825
:10059000C009ACE8C009ACE8C0098D467047044604
:1005A000AFF300802046FFF70FFE000000487047C1
:1005B0000801002001464906084A926942F00102FA
:1005C000064B9A61064A526822F0E062044B5A6078
:1005D0001A4652680A435A607047000000100240F1
:1005E0000000014010B51E48806940F004001C491D
:1005F00088610846806940F0100088610120FFF79B
:10060000D9FF1848006820F00F0016490860084616
:10061000006840F008000860081D006820F0704085
:10062000091D08600846006840F0004008600D4859
:100630000C30006840F400400A490C3108600A4858
:10064000006820F47000084908600846006840F41B
:10065000000008600846C06840F02000C86010BD77
:1006600000100240000801400010014070B504462F
:1006700000261D480588408845431B48808846F66B
:100680000401884216D118488079012812D100202F
:10069000154988712A2048812B208881002108462D
:1006A00004F0F8FB0120104988712B2048812A2092
:1006B000888103E00021084604F0ECFB04F0B4FE5E
:1006C00000260DE04FF48070084908614000486141
:1006D0000748046080204861086180000861761C3A
:1006E000AE42EFD370BD0000F800002000100140C2
:1006F0000C0C014010B50446002C66D16C49887181
:10070000F02008804FF4A07048800846808849F2A5
:10071000413188420BD06648808846F60401884201
:1007200005D06348808845F2103188421AD12C20C8
:100730005F4908812A2048812B20888108468088CB
:1007400046F60401884205D05948808845F21031A8
:10075000884206D14FF4A070554908804FF4F070DC
:100760004880A1E05248808845F21051884210D15B
:100770004FF430504E4908814FF4285048814FF4CF
:100780002C5088814FF4F07008804FF448704880F6
:100790008AE04748808841F6631188420DD12C20B9
:1007A000434908812B2048812A2088814FF4F0702A
:1007B00008804FF44870488076E022203C49088148
:1007C00020204881212088816EE0012038498871ED
:1007D0004FF4A0700880F02048800846808849F2D5
:1007E0004131884205D03248808845F21031884234
:1007F00007D12C202E4908812A2048812B2088816E
:100800003FE02B48808846F60401884207D12C201F
:10081000274908812B2048812A20888131E02448FB
:10082000808845F21051884210D14FF43050204951
:1008300008814FF4285048814FF42C5088814FF4A0
:10084000487008804FF4F07048801AE0184880889B
:1008500041F6631188420DD12C20154908812A20C8
:1008600048812B2088814FF4487008804FF4F07045
:10087000488006E022200E4908812120488120205E
:1008800088810B48808846F60401884205D00848D4
:10089000808845F21031884206D14FF4F070044947
:1008A00008804FF4A0704880002004F0C7F810BD05
:1008B000F80000202DE9FF4F84B081468A460020D1
:1008C000039002900698A0EB09050798A0EB0A0692
:1008D000CDF80490CDF800A0002D01DD012705E042
:1008E0000DB9002702E04FF0FF376D42002E02DD08
:1008F0004FF0010806E016B94FF0000802E04FF093
:10090000FF387642B54201DD2C4600E034464FF018
:10091000000B21E0009A91B2019A90B200F022F807
:100920000398284403900298304402900398A04210
:1009300005DD0398001B039001983844019002984C
:10094000A04205DD0298001B0290009840440090F0
:100950000BF101001FFA80FB601C8345DADD08B053
:10096000BDE8F08F30B504460D462946204604F018
:1009700091FA04F059FD4FF4807007490861400076
:10098000486106480088064908608020024948619D
:1009900008618000086130BD001001400A0000209D
:1009A0000C0C014070B504460D461646D3488088AD
:1009B00049F24131884205D0D048808845F2103153
:1009C000884240D1CD49488904F01CFD4FF4807025
:1009D000CB490861400048612012CA490860802064
:1009E000C749486108618000086140100861400003
:1009F0004861E0B2C34908608020C149486108618C
:100A000080000861BD49888904F0FCFC4FF48070C7
:100A1000BB490861400048612812BA49086080203B
:100A2000B7494861086180000861401008614000D2
:100A30004861E8B2B34908608020B1494861086163
:100A4000800008613DE1AD48808845F21051884240
:100A500050D1AA49488904F0D5FC4FF48070A849C8
:100A60000861400048612012A64908608020A4491E
:100A70004861086180000861A0494989491C88B221
:100A800004F0C0FC4FF480709D490861400048614B
:100A9000E0B29C4908608020994948610861800063
:100AA00008619649888904F0ADFC4FF48070944940
:100AB00008614000486128129249086080209049EE
:100AC00048610861800008618C498989491C88B2A5
:100AD00004F098FC4FF48070894908614000486137
:100AE000E8B2884908608020854948610861800033
:100AF0000861E6E08148808841F6631188427DD133
:100B00007E48807920B97D480088401E001B84B251
:100B10007A49488904F076FC4FF48070784908617E
:100B2000400048612012774908608020744948617C
:100B30000861800008614010086140004861E0B22F
:100B40007049086080206E49486108618000086132
:100B5000401008614000486120126A490860802006
:100B600067494861086180000861401008614000E1
:100B70004861E0B2634908608020614948610861CA
:100B8000800008615D49888904F03CFC4FF4807066
:100B90005B4908614000486128125A49086080207A
:100BA00057494861086180000861401008614000B1
:100BB0004861E8B2534908608020514948610861A2
:100BC00080000861401008614000486128124D49CA
:100BD000086080204A49486108618000086140102F
:100BE000086140004861E8B24649086080204449F5
:100BF000486108618000086163E0FFE73F48808842
:100C000046F60401884249D13C488079012804D144
:100C10003A480088401E001B84B23849488904F0D5
:100C2000F1FB4FF4807036490861400048612012A2
:100C300034490860802032494861086180000861B9
:100C40004010086140004861E0B22E4908608020F1
:100C50002B4948610861800008612849888904F0AF
:100C6000D1FB4FF48070264908614000486128128A
:100C70002449086080202249486108618000086199
:100C80004010086140004861E8B21E4908608020B9
:100C90001B49486108618000086112E017488079AB
:100CA000012804D115480088401E001B84B2134956
:100CB0004889214604F0C0FB10498889294604F080
:100CC000BBFB4FF480700E494861400048610B48FF
:100CD00000890C490860802009494861086180004A
:100CE00008614010086140004861064806608020A5
:100CF000486108618000086170BD0000F8000020B4
:100D0000001001400C0C014010B5FE48806940F015
:100D10000800FC4988610846806940F0100088613D
:100D20000846806940F0010088610120FFF742FC1D
:100D3000F54840686FF30B00F34948600846406887
:100D400040F233310843F04948600846006820F01B
:100D50007F4008600846006840F04C500860084634
:100D6000C06840F4F860C8604FF03330E74908606D
:100D7000091F08604FF6FF70E4490831086032200F
:100D800004F0B0FD0121002004F056FB322004F0F5
:100D9000A9FD002003F0E0FDDD4988800846808839
:100DA000FF280ADB084680884FF6FF71884204D08E
:100DB000D7488088B0F5134F7ED1D32004F022FBB2
:100DC00003F092FD03F090FD03F08EFDD049888082
:100DD000084680884FF6FF7101EA0020CC498880E0
:100DE00003F082FDCA4989880843C94988800846BA
:100DF000808849F2413188425ED0BF2004F002FB76
:100E000003F072FD03F070FD03F06EFD03F06CFD66
:100E1000BF498880084680884FF6FF7101EA0020AC
:100E2000BB49888003F060FDB94989880843B84907
:100E300088800846808846F60401884274D0D42011
:100E400004F0E0FA03F050FD03F04EFD03F04CFD1A
:100E5000AF498880084680884FF6FF7101EA00207C
:100E6000AB49888003F040FDA94989880843A84917
:100E700088800846808845F21031884254D04FF46B
:100E80005A4004F0BFFA03F02FFD4FF45B4004F02A
:100E9000B9FA03F029FD9E498880084680884FF6FC
:100EA000FF7101EA00209A4988804FF45C4004F009
:100EB000A9FA03F019FD00E036E095498988084356
:100EC0009349888008468088B0F5004F02D145F2EA
:100ED000105088808E48808845F21051884223D077
:100EE000A12004F08FFA03F0FFFC8949888003F009
:100EF000FBFC87498880084680884FF6FF7101EA2D
:100F000000208349888003F0EFFC814989880843E9
:100F10007F4988800846808845F26171884203D104
:100F200041F663107A4988807948818879A0FFF773
:100F30006FF97748808849F2413188427ED1CF20CD
:100F400004F060FA002004F04BFAC12004F048FAE3
:100F5000302004F045FAED2004F054FA642004F047
:100F60003FFA032004F03CFA122004F039FA812001
:100F700004F036FAE82004F045FA852004F030FA4F
:100F8000102004F02DFA7A2004F02AFACB2004F085
:100F900039FA392004F024FA2C2004F021FA002038
:100FA00004F01EFA342004F01BFA022004F018FAB0
:100FB000F72004F027FA202004F012FAEA2004F0C7
:100FC00021FA002004F00CFA002004F009FAC020F5
:100FD00004F018FA1B2004F003FAC12004F012FAFE
:100FE000012004F0FDF9C52004F00CFA302004F0D3
:100FF000F7F9302004F0F4F9C72004F003FAB72021
:1010000004F0EEF9362004F0FDF9482004F0E8F988
:101010003A2004F0F7F9552004F0E2F9B12004F089
:10102000F1F9002004F0DCF91A2004F0D9F9B62017
:1010300004F0E8F90A2004F0D3F900E0A9E0A220C6
:1010400004F0CEF9F22004F0DDF9002004F0C8F934
:10105000262004F0D7F9012004F0C2F9E02004F0C2
:10106000D1F90F2004F0BCF92A2004F0B9F92820A6
:1010700004F0B6F9082004F0B3F90E2004F0B0F93A
:10108000082004F0ADF9542004F0AAF9A92004F0D6
:10109000A7F9432004F0A4F90A2004F0A1F90F20D5
:1010A00004F09EF9002004F09BF9002004F098F968
:1010B000002004F095F9002004F092F9E12004F0FA
:1010C000A1F9002004F08CF9152004F089F917200B
:1010D00004F086F9072004F083F9112004F080F968
:1010E000062004F07DF92B2004F07AF9562004F054
:1010F00077F93C2004F074F9052004F071F9102010
:1011000010E000000010024000100140040C0140FB
:10111000F8000020204C43442049443A25780D0A29
:101120000000000004F05CF90F2004F059F93F20A2
:1011300004F056F93F2004F053F90F2004F050F961
:101140002B2004F05FF9002004F04AF9002004F09D
:1011500047F9012004F044F93F2004F041F92A2026
:1011600004F050F9002004F03BF9002004F038F9B5
:10117000002004F035F9EF2004F032F9112004F0DA
:1011800041F9782004F0AEFB292004F03BF903F08C
:101190009ABBFE48808846F6040188427ED1112021
:1011A00004F030F9142004F09DFBD02004F02AF95B
:1011B000072004F015F9422004F012F91D2004F074
:1011C0000FF9D12004F01EF9002004F009F91A20CB
:1011D00004F006F9092004F003F9D22004F012F912
:1011E000012004F0FDF8222004F0FAF8C02004F0F9
:1011F00009F9102004F0F4F83B2004F0F1F8002085
:1012000004F0EEF8022004F0EBF8112004F0E8F806
:10121000C52004F0F7F8032004F0E2F8C82004F039
:10122000F1F8002004F0DCF8252004F0D9F82120A2
:1012300004F0D6F8052004F0D3F8002004F0D0F82C
:101240000A2004F0CDF8652004F0CAF8252004F047
:10125000C7F8772004F0C4F8502004F0C1F80F203C
:1012600004F0BEF8002004F0BBF8F82004F0CAF83F
:10127000012004F0B5F8FE2004F0C4F8002004F0CA
:10128000AFF8022004F0ACF8202004F0BBF83620C0
:1012900004F0B8F8082004F0A3F800E02AE03A20AF
:1012A00004F0B0F8552004F09BF82B2004F0AAF8C5
:1012B000002004F095F8002004F092F8012004F0DA
:1012C0008FF83F2004F08CF82A2004F09BF80020CF
:1012D00004F086F8002004F083F8012004F080F880
:1012E000DF2004F07DF8782004F0FCFA292004F0D7
:1012F00089F84CE7A548808845F21031884240F0D3
:101300007C87ED2004F07EF8012004F069F8FE20CF
:1013100004F066F8EE2004F075F8DE2004F060F8C2
:10132000212004F05DF8F12004F06CF8012004F0B5
:1013300057F8DF2004F066F8102004F051F8C420BC
:1013400004F060F88F2004F04BF8C62004F05AF83F
:10135000002004F045F8E22004F042F8E22004F016
:101360003FF8E22004F03CF8BF2004F04BF8AA203C
:1013700004F036F8B02004F045F80D2004F030F801
:10138000002004F02DF80D2004F02AF8002004F0CD
:1013900027F8112004F024F8002004F021F8192087
:1013A00004F01EF8002004F01BF8212004F018F8C7
:1013B000002004F015F82D2004F012F8002004F0AD
:1013C0000FF83D2004F00CF8002004F009F85D202F
:1013D00004F006F8002004F003F85D2004F000F8A3
:1013E000002003F0FDFFB12004F00CF8802003F092
:1013F000F7FF002003F0F4FF8B2003F0F1FF002043
:1014000003F0EEFF962003F0EBFF002003F0E8FF6F
:10141000B22003F0F7FF002003F0E2FF002003F00A
:10142000DFFF022003F0DCFF002003F0D9FF0320E0
:1014300003F0D6FF002003F0D3FFB32003F0E2FF58
:10144000002003F0CDFF002003F0CAFF002003F0CE
:10145000C7FF002003F0C4FF002003F0C1FF0020FD
:1014600003F0BEFF002003F0BBFF002003F0B8FF35
:10147000002003F0B5FF002003F0B2FF002003F0CE
:10148000AFFF002003F0ACFF002003F0A9FF002015
:1014900003F0A6FF002003F0A3FF002003F0A0FF4D
:1014A000002003F09DFF002003F09AFF002003F0CE
:1014B00097FF002003F094FF002003F091FF00202D
:1014C00003F08EFF002003F08BFF002003F088FF65
:1014D000B42003F097FF8B2003F082FF002003F07D
:1014E0007FFF962003F07CFF002003F079FFA1200E
:1014F00003F076FF002003F073FFB52003F082FFB6
:10150000022003F06DFF002003F06AFF032003F0C8
:1015100067FF002003F064FF042003F061FF002058
:1015200003F05EFFB62003F06DFF002003F058FFCC
:10153000002003F055FFB72003F064FF002003F004
:101540004FFF002003F04CFF3F2003F049FF002035
:1015500003F046FF5E2003F043FF002003F040FF4E
:10156000642003F03DFF002003F03AFF8C2003F0DD
:1015700037FF002003F034FFAC2003F031FF0020E0
:1015800003F02EFFDC2003F02BFF01E0F800002029
:10159000002003F025FF702003F022FF002003F05D
:1015A0001FFF902003F01CFF002003F019FFEB2029
:1015B00003F016FF002003F013FFDC2003F010FF00
:1015C000002003F00DFFB82003F01CFF002003F003
:1015D00007FF002003F004FF002003F001FF0020BC
:1015E00003F0FEFE002003F0FBFE002003F0F8FEF7
:1015F000002003F0F5FE002003F0F2FEBA2003F015
:1016000001FF242003F0ECFE002003F0E9FE00209F
:1016100003F0E6FE002003F0E3FEC12003F0F2FE3B
:10162000202003F0DDFE002003F0DAFE542003F05A
:10163000D7FE002003F0D4FEFF2003F0D1FE0020EF
:1016400003F0CEFEC22003F0DDFE0A2003F0C8FE48
:10165000002003F0C5FE042003F0C2FE002003F0CA
:10166000BFFEC32003F0CEFE3C2003F0B9FE0020F5
:1016700003F0B6FE3A2003F0B3FE002003F0B0FE04
:10168000392003F0ADFE002003F0AAFE372003F05E
:10169000A7FE002003F0A4FE3C2003F0A1FE0020E2
:1016A00003F09EFE362003F09BFE002003F098FE20
:1016B000322003F095FE002003F092FE2F2003F06D
:1016C0008FFE002003F08CFE2C2003F089FE00200A
:1016D00003F086FE292003F083FE002003F080FE45
:1016E000262003F07DFE002003F07AFE242003F084
:1016F00077FE002003F074FE242003F071FE00202A
:1017000003F06EFE232003F06BFE002003F068FE62
:101710003C2003F065FE002003F062FE362003F05B
:101720005FFE002003F05CFE322003F059FE002033
:1017300003F056FE2F2003F053FE002003F050FE6E
:101740002C2003F04DFE002003F04AFE292003F078
:1017500047FE002003F044FE262003F041FE002057
:1017600003F03EFE242003F03BFE002003F038FE91
:10177000242003F035FE002003F032FE232003F086
:101780002FFE002003F02CFEC42003F03BFE62205D
:1017900003F026FE002003F023FE052003F020FEC8
:1017A000002003F01DFE842003F01AFE002003F049
:1017B00017FEF02003F014FE002003F011FE1820A5
:1017C00003F00EFE002003F00BFEA42003F008FE41
:1017D000002003F005FE182003F002FE002003F0B5
:1017E000FFFD502003F0FCFD002003F0F9FD0C206C
:1017F00003F0F6FD002003F0F3FD172003F0F0FDE9
:10180000002003F0EDFD952003F0EAFD002003F039
:10181000E7FDF32003F0E4FD002003F0E1FDE62006
:1018200003F0DEFD002003F0DBFDC52003F0EAFD40
:10183000322003F0D5FD002003F0D2FD442003F058
:10184000CFFD002003F0CCFD652003F0C9FD002092
:1018500003F0C6FD762003F0C3FD002003F0C0FDB9
:10186000882003F0BDFD002003F0BAFDC62003F080
:10187000C9FD202003F0B4FD002003F0B1FD1720C6
:1018800003F0AEFD002003F0ABFD012003F0A8FD46
:10189000002003F0A5FDC72003F0B4FD002003F0F5
:1018A0009FFD002003F09CFD002003F099FD002027
:1018B00003F096FDC82003F0A5FD002003F090FD85
:1018C000002003F08DFD002003F08AFD002003F0CE
:1018D00087FDC92003F096FD002003F081FD002064
:1018E00003F07EFD002003F07BFD002003F078FD77
:1018F000002003F075FD002003F072FD002003F0CE
:101900006FFD002003F06CFD002003F069FD002056
:1019100003F066FD002003F063FD002003F060FD8E
:10192000002003F05DFD002003F05AFD002003F0CD
:1019300057FD002003F054FDE02003F063FD162066
:1019400003F04EFD002003F04BFD1C2003F048FD8A
:10195000002003F045FD212003F042FD002003F0AC
:101960003FFD362003F03CFD002003F039FD46200A
:1019700003F036FD002003F033FD522003F030FD6C
:10198000002003F02DFD642003F02AFD002003F069
:1019900027FD7A2003F024FD002003F021FD8B2099
:1019A00003F01EFD002003F01BFD992003F018FD3D
:1019B000002003F015FDA82003F012FD002003F025
:1019C0000FFDB92003F00CFD002003F009FDC42039
:1019D00003F006FD002003F003FDCA2003F000FD24
:1019E000002003F0FDFCD22003F0FAFC002003F0FD
:1019F000F7FCD92003F0F4FC002003F0F1FCE02018
:101A000003F0EEFC002003F0EBFCF32003F0E8FC15
:101A1000002003F0E5FCE12003F0F4FC162003F0C5
:101A2000DFFC002003F0DCFC1C2003F0D9FC0020CC
:101A300003F0D6FC222003F0D3FC002003F0D0FCFE
:101A4000362003F0CDFC002003F0CAFC452003F053
:101A5000C7FC002003F0C4FC522003F0C1FC0020AE
:101A600003F0BEFC642003F0BBFC002003F0B8FCD4
:101A70007A2003F0B5FC002003F0B2FC8B2003F0C9
:101A8000AFFC002003F0ACFC992003F0A9FC00207F
:101A900003F0A6FCA82003F0A3FC002003F0A0FCA8
:101AA000B92003F09DFC002003F09AFCC42003F051
:101AB00097FC002003F094FCCA2003F091FC002066
:101AC00003F08EFCD22003F08BFC002003F088FC96
:101AD000D82003F085FC002003F082FCE02003F016
:101AE0007FFC002003F07CFCF32003F079FC002055
:101AF00003F076FCE22003F085FC052003F070FC87
:101B0000002003F06DFC0B2003F06AFC002003F0C2
:101B100067FC1B2003F064FC002003F061FC342010
:101B200003F05EFC002003F05BFC442003F058FC53
:101B3000002003F055FC4F2003F052FC002003F07E
:101B40004FFC612003F04CFC002003F049FC79209D
:101B500003F046FC002003F043FC882003F040FC27
:101B6000002003F03DFC972003F03AFC002003F036
:101B700037FCA62003F034FC002003F031FCB72032
:101B800003F02EFC002003F02BFCC22003F028FC05
:101B9000002003F025FCC72003F022FC002003F006
:101BA0001FFCD12003F01CFC002003F019FCD62000
:101BB00003F016FC002003F013FCDD2003F010FC02
:101BC000002003F00DFCF32003F00AFC002003F0DA
:101BD00007FCE32003F016FC052003F001FC0020C5
:101BE00003F0FEFB0A2003F0FBFB002003F0F8FBF0
:101BF0001C2003F0F5FB002003F0F2FB332003F080
:101C0000EFFB002003F0ECFB442003F0E9FB002095
:101C100003F0E6FB502003F0E3FB002003F0E0FBC1
:101C2000622003F0DDFB002003F0DAFB782003F0F4
:101C3000D7FB002003F0D4FB882003F0D1FB002069
:101C400003F0CEFB972003F0CBFB002003F0C8FB92
:101C5000A62003F0C5FB002003F0C2FBB72003F071
:101C6000BFFB002003F0BCFBC22003F0B9FB002047
:101C700003F0B6FBC72003F0B3FB002003F0B0FB7A
:101C8000D12003F0ADFB002003F0AAFBD52003F028
:101C9000A7FB002003F0A4FBDD2003F0A1FB002044
:101CA00003F09EFBF32003F09BFB002003F098FB66
:101CB000E42003F0A7FB012003F092FB002003F0D7
:101CC0008FFB012003F08CFB002003F089FB022036
:101CD00003F086FB002003F083FB2A2003F080FB47
:101CE000002003F07DFB3C2003F07AFB002003F092
:101CF00077FB4B2003F074FB002003F071FB5D20A9
:101D000003F06EFB002003F06BFB742003F068FB14
:101D1000002003F065FB842003F062FB002003F049
:101D20005FFB932003F05CFB002003F059FBA22033
:101D300003F056FB002003F053FBB32003F050FBED
:101D4000002003F04DFBBE2003F04AFB002003F00F
:101D500047FBC42003F044FB002003F041FBCD20EF
:101D600003F03EFB002003F03BFBD32003F038FBE5
:101D7000002003F035FBDD2003F032FB002003F0F0
:101D80002FFBF32003F02CFB002003F029FBE520C0
:101D900003F038FB002003F023FB002003F020FBBE
:101DA000002003F01DFB002003F01AFB022003F0CB
:101DB00017FB002003F014FB292003F011FB002087
:101DC00003F00EFB3C2003F00BFB002003F008FBAC
:101DD0004B2003F005FB002003F002FB5D2003F025
:101DE000FFFA002003F0FCFA742003F0F9FA002057
:101DF00003F0F6FA842003F0F3FA002003F0F0FA7F
:101E0000932003F0EDFA002003F0EAFAA22003F099
:101E1000E7FA002003F0E4FAB32003F0E1FA00202F
:101E200003F0DEFABE2003F0DBFA002003F0D8FA5C
:101E3000C42003F0D5FA002003F0D2FACD2003F03D
:101E4000CFFA002003F0CCFAD32003F0C9FA002027
:101E500003F0C6FADC2003F0C3FA002003F0C0FA56
:101E6000F32003F0BDFA002003F0BAFAE62003F0F5
:101E7000C9FA112003F0B4FA002003F0B1FA3420BB
:101E800003F0AEFA002003F0ABFA562003F0A8FAF4
:101E9000002003F0A5FA762003F0A2FA002003F058
:101EA0009FFA772003F09CFA002003F099FA66204D
:101EB00003F096FA002003F093FA882003F090FADA
:101EC000002003F08DFA992003F08AFA002003F035
:101ED00087FABB2003F084FA002003F081FA9920EE
:101EE00003F07EFA002003F07BFA662003F078FA14
:101EF000002003F075FA552003F072FA002003F079
:101F00006FFA552003F06CFA002003F069FA4520BF
:101F100003F066FA002003F063FA432003F060FA4E
:101F2000002003F05DFA442003F05AFA002003F089
:101F300057FAE72003F066FA322003F051FA002046
:101F400003F04EFA552003F04BFA002003F048FA54
:101F5000762003F045FA002003F042FA662003F0F1
:101F60003FFA002003F03CFA672003F039FA002022
:101F700003F036FA672003F033FA002003F030FA5A
:101F8000872003F02DFA002003F02AFA992003F0AD
:101F900027FA002003F024FABB2003F021FA0020E6
:101FA00003F01EFA992003F01BFA002003F018FA40
:101FB000772003F015FA002003F012FA442003F012
:101FC0000FFA002003F00CFA562003F009FA002063
:101FD00003F006FA232003F003FA002003F000FACE
:101FE000332003F0FDF9002003F0FAF9452003F057
:101FF000F7F9002003F0F4F9E82003F003FA0020D9
:1020000003F0EEF9002003F0EBF9992003F0E8F972
:10201000002003F0E5F9872003F0E2F9002003F047
:10202000DFF9882003F0DCF9002003F0D9F97720EC
:1020300003F0D6F9002003F0D3F9662003F0D0F9BD
:10204000002003F0CDF9882003F0CAF9002003F046
:10205000C7F9AA2003F0C4F9002003F0C1F9BB209E
:1020600003F0BEF9002003F0BBF9992003F0B8F9A2
:10207000002003F0B5F9662003F0B2F9002003F068
:10208000AFF9552003F0ACF9002003F0A9F9552071
:1020900003F0A6F9002003F0A3F9442003F0A0F90F
:1020A000002003F09DF9442003F09AF9002003F08A
:1020B00097F9552003F094F9002003F091F9E920F5
:1020C00003F0A0F9AA2003F08BF9002003F088F9AF
:1020D000002003F085F9002003F082F9002003F0CE
:1020E00091F9AA2003F07CF9CF2003F08BF90020AE
:1020F00003F076F9002003F073F9002003F070F983
:10210000002003F06DF9002003F06AF9002003F0CD
:1021100067F9002003F064F9002003F061F9002062
:1021200003F05EF9002003F05BF9002003F058F99A
:10213000002003F055F9002003F052F9002003F0CD
:102140004FF9002003F04CF9002003F049F900207A
:1021500003F046F9F02003F055F9002003F040F9B0
:10216000502003F03DF9002003F03AF9002003F07D
:1021700037F9002003F034F9F32003F043F900208D
:1021800003F02EF9F92003F03DF9062003F028F9B9
:10219000102003F025F9292003F022F9002003F094
:1021A0001FF93A2003F02EF9552003F019F91120F8
:1021B00003F028F9642003F095FB292003F022F9AD
:1021C000352003F01FF9002003F00AF9512003F035
:1021D00019F9FF2003F004F9532003F013F92C2020
:1021E00003F0FEF8552003F00DF9822003F0F8F813
:1021F0002C2003F007F902F066BBFE48808845F208
:10220000105188427ED155214FF4704003F014F9EB
:10221000AA214FF2010003F00FF952214FF2020000
:1022200003F00AF908214FF2030003F005F9012138
:102230004FF2040003F000F90D214FF4304003F099
:10224000FBF80D214BF2010003F0F6F80D214BF2E3
:10225000020003F0F1F834214FF4364003F0ECF8BB
:1022600034214BF2016003F0E7F834214BF20260B5
:1022700003F0E2F80D214FF4314003F0DDF80D21B9
:102280004BF2011003F0D8F80D214BF2021003F0CD
:10229000D3F834214FF4374003F0CEF834214BF219
:1022A000017003F0C9F834214BF2027003F0C4F856
:1022B00000214FF4324003F0BFF800214BF201201F
:1022C00003F0BAF800214BF2022003F0B5F8242104
:1022D0004FF4384003F0B0F824214BF6010003F02E
:1022E000ABF824214BF6020003F0A6F801214FF4CD
:1022F0003F4003F0A1F80F214FF4334003F09CF866
:102300000F2100E0FEE34BF2013003F095F80F21BE
:102310004BF2023003F090F834214FF4394003F0CF
:102320008BF834214BF6011003F086F834214BF67C
:10233000021003F081F808214FF4354003F07CF8D7
:1023400008214BF2015003F077F808214BF20250BC
:1023500003F072F803214FF4424003F06DF824219A
:102360004FF43A4003F068F824214BF6012003F0C3
:1023700063F824214BF6022003F05EF800214FF4AD
:102380003C4003F059F878214BF6014003F054F833
:1023900000214BF6024003F04FF800214FF43D407E
:1023A00003F04AF878214BF6015003F045F800217C
:1023B0004BF6025003F040F800214FF43E4003F08A
:1023C0003BF864214BF6016003F036F800214FF42E
:1023D000514003F031F833214DF2011003F02CF895
:1023E00000214DF2021003F027F834214DF20310C2
:1023F00003F022F800214DF2041003F01DF83A21F9
:102400004DF2051003F018F800214DF2061003F00C
:1024100013F84A214DF2071003F00EF800214DF297
:10242000081003F009F85C214DF2091003F004F8DC
:1024300000214DF20A1002F0FFFF81214DF20B1036
:1024400002F0FAFF00214DF20C1002F0F5FFA62178
:102450004DF20D1002F0F0FF00214DF20E1002F0CF
:10246000EBFFE5214DF20F1002F0E6FF01214DF2E6
:10247000101002F0E1FF13214DF2111002F0DCFF09
:1024800001214DF2121002F0D7FF54214DF213102A
:1024900002F0D2FF01214DF2141002F0CDFF822193
:1024A0004DF2151002F0C8FF01214DF2161002F096
:1024B000C3FFCA214DF2171002F0BEFF02214DF2F8
:1024C000181002F0B9FF00214DF2191002F0B4FF0C
:1024D00002214DF21A1002F0AFFF01214DF21B1044
:1024E00002F0AAFF02214DF21C1002F0A5FF3421D8
:1024F0004DF21D1002F0A0FF02214DF21E1002F05D
:102500009BFF67214DF21F1002F096FF02214DF252
:10251000201002F091FF84214DF2211002F08CFF77
:1025200002214DF2221002F087FFA4214DF2231068
:1025300002F082FF02214DF2241002F07DFFB7214C
:102540004DF2251002F078FF02214DF2261002F024
:1025500073FFCF214DF2271002F06EFF02214DF2E2
:10256000281002F069FFDE214DF2291002F064FF0D
:1025700002214DF22A1002F05FFFF2214DF22B10E2
:1025800002F05AFF02214DF22C1002F055FFFE21FD
:102590004DF22D1002F050FF03214DF22E1002F0EB
:1025A0004BFF10214DF22F1002F046FF03214DF298
:1025B000301002F041FF33214DF2311002F03CFFA8
:1025C00003214DF2321002F037FF6D214DF233102E
:1025D00002F032FF00214FF4524002F02DFF332170
:1025E0004DF2012002F028FF00214DF2022002F0FE
:1025F00023FF01E0F800002034214DF2032002F017
:102600001BFF00214DF2042002F016FF3A214DF28B
:10261000052002F011FF00214DF2062002F00CFF10
:102620004A214DF2072002F007FF00214DF2082059
:1026300002F002FF5C214DF2092002F0FDFE0021B4
:102640004DF20A2002F0F8FE81214DF20B2002F03B
:10265000F3FE00214DF20C2002F0EEFEA6214DF219
:102660000D2002F0E9FE00214DF20E2002F0E4FE02
:10267000E5214DF20F2002F0DFFE01214DF2102086
:1026800002F0DAFE13214DF2112002F0D5FE0121F5
:102690004DF2122002F0D0FE54214DF2132002F030
:1026A000CBFE01214DF2142002F0C6FE82214DF234
:1026B000152002F0C1FE01214DF2162002F0BCFEF1
:1026C000CA214DF2172002F0B7FE02214DF2182068
:1026D00002F0B2FE00214DF2192002F0ADFE0221FF
:1026E0004DF21A2002F0A8FE01214DF21B2002F04B
:1026F000A3FE02214DF21C2002F09EFE34214DF279
:102700001D2002F099FE02214DF21E2002F094FEDF
:1027100067214DF21F2002F08FFE02214DF2202092
:1027200002F08AFE84214DF2212002F085FE022172
:102730004DF2222002F080FEA4214DF2232002F06F
:102740007BFE02214DF2242002F076FEB7214DF2ED
:10275000252002F071FE02214DF2262002F06CFECF
:10276000CF214DF2272002F067FE02214DF22820F2
:1027700002F062FEDE214DF2292002F05DFE022110
:102780004DF22A2002F058FEF2214DF22B2002F0E9
:1027900053FE02214DF22C2002F04EFEFE214DF29E
:1027A0002D2002F049FE03214DF22E2002F044FEBE
:1027B00010214DF22F2002F03FFE03214DF2302078
:1027C00002F03AFE33214DF2312002F035FE0321B2
:1027D0004DF2322002F030FE6D214DF2332002F036
:1027E0002BFE00214FF4534002F026FE33214DF220
:1027F000013002F021FE00214DF2023002F01CFEF9
:1028000034214DF2033002F017FE00214DF2043066
:1028100002F012FE3A214DF2053002F00DFE0021C9
:102820004DF2063002F008FE4A214DF2073002F068
:1028300003FE00214DF2083002F0FEFD5C214DF256
:10284000093002F0F9FD00214DF20A3002F0F4FDEA
:1028500081214DF20B3002F0EFFD00214DF20C30E2
:1028600002F0EAFDA6214DF20D3002F0E5FD002157
:102870004DF20E3002F0E0FDE5214DF20F3002F096
:10288000DBFD01214DF2103002F0D6FD13214DF297
:10289000113002F0D1FD01214DF2123002F0CCFDD9
:1028A00054214DF2133002F0C7FD01214DF21430D6
:1028B00002F0C2FD82214DF2153002F0BDFD012172
:1028C0004DF2163002F0B8FDCA214DF2173002F079
:1028D000B3FD02214DF2183002F0AEFD00214DF2A1
:1028E000193002F0A9FD02214DF21A3002F0A4FDC8
:1028F00001214DF21B3002F09FFD02214DF21C30F0
:1029000002F09AFD34214DF21D3002F095FD0221B6
:102910004DF21E3002F090FD67214DF21F3002F0A3
:102920008BFD02214DF2203002F086FD84214DF214
:10293000213002F081FD02214DF2223002F07CFDB7
:10294000A4214DF2233002F077FD02214DF2243014
:1029500002F072FDB7214DF2253002F06DFD02212B
:102960004DF2263002F068FDCF214DF2273002F003
:1029700063FD02214DF2283002F05EFDDE214DF2B2
:10298000293002F059FD02214DF22A3002F054FDA7
:10299000F2214DF22B3002F04FFD02214DF22C308E
:1029A00002F04AFDFE214DF22D3002F045FD0321DB
:1029B0004DF22E3002F040FD10214DF22F3002F08A
:1029C0003BFD03214DF2303002F036FD33214DF254
:1029D000313002F031FD03214DF2323002F02CFD96
:1029E0006D214DF2333002F027FD00214FF45440A9
:1029F00002F022FD33214DF2014002F01DFD0021C5
:102A00004DF2024002F018FD34214DF2034002F075
:102A100013FD00214DF2044002F00EFD3A214DF26B
:102A2000054002F009FD00214DF2064002F004FDD0
:102A30004A214DF2074002F0FFFC00214DF2084010
:102A400002F0FAFC5C214DF2094002F0F5FC002195
:102A50004DF20A4002F0F0FC81214DF20B4002F0F1
:102A6000EBFC00214DF20C4002F0E6FCA6214DF2F9
:102A70000D4002F0E1FC00214DF20E4002F0DCFCC2
:102A8000E5214DF20F4002F0D7FC01214DF210403C
:102A900002F0D2FC13214DF2114002F0CDFC0121D5
:102AA0004DF2124002F0C8FC54214DF2134002F0E6
:102AB000C3FC01214DF2144002F0BEFC82214DF214
:102AC000154002F0B9FC01214DF2164002F0B4FCB1
:102AD000CA214DF2174002F0AFFC02214DF218401E
:102AE00002F0AAFC00214DF2194002F0A5FC0221DF
:102AF0004DF21A4002F0A0FC01214DF21B4002F001
:102B00009BFC00E004E302214DF21C4002F094FC27
:102B100034214DF21D4002F08FFC02214DF21E4087
:102B200002F08AFC67214DF21F4002F085FC022171
:102B30004DF2204002F080FC84214DF2214002F051
:102B40007BFC02214DF2224002F076FCA4214DF2E2
:102B5000234002F071FC02214DF2244002F06CFC93
:102B6000B7214DF2254002F067FC02214DF22640CC
:102B700002F062FCCF214DF2274002F05DFC022101
:102B80004DF2284002F058FCDE214DF2294002F0BF
:102B900053FC02214DF22A4002F04EFCF2214DF28C
:102BA0002B4002F049FC02214DF22C4002F044FC83
:102BB000FE214DF22D4002F03FFC03214DF22E404C
:102BC00002F03AFC10214DF22F4002F035FC0321B7
:102BD0004DF2304002F030FC33214DF2314002F032
:102BE0002BFC03214DF2324002F026FC6D214DF208
:102BF000334002F021FC00214FF4554002F01CFC50
:102C000033214DF2015002F017FC00214DF2025029
:102C100002F012FC34214DF2035002F00DFC0021B1
:102C20004DF2045002F008FC3A214DF2055002F03A
:102C300003FC00214DF2065002F0FEFB4A214DF24A
:102C4000075002F0F9FB00214DF2085002F0F4FBAE
:102C50005C214DF2095002F0EFFB00214DF20A50C9
:102C600002F0EAFB81214DF20B5002F0E5FB00215E
:102C70004DF20C5002F0E0FBA6214DF20D5002F097
:102C8000DBFB00214DF20E5002F0D6FBE5214DF2A8
:102C90000F5002F0D1FB01214DF2105002F0CCFB9D
:102CA00013214DF2115002F0C7FB01214DF21250D9
:102CB00002F0C2FB54214DF2135002F0BDFB012182
:102CC0004DF2145002F0B8FB82214DF2155002F083
:102CD000B3FB01214DF2165002F0AEFBCA214DF2BA
:102CE000175002F0A9FB02214DF2185002F0A4FB8C
:102CF00000214DF2195002F09FFB02214DF21A50B3
:102D000002F09AFB01214DF21B5002F095FB0221CB
:102D10004DF21C5002F090FB34214DF21D5002F098
:102D20008BFB02214DF21E5002F086FB67214DF213
:102D30001F5002F081FB02214DF2205002F07CFB7B
:102D400084214DF2215002F077FB02214DF22250F6
:102D500002F072FBA4214DF2235002F06DFB022120
:102D60004DF2245002F068FBB7214DF2255002F0DD
:102D700063FB02214DF2265002F05EFBCF214DF2A3
:102D8000275002F059FB02214DF2285002F054FB6B
:102D9000DE214DF2295002F04FFB02214DF22A5064
:102DA00002F04AFBF2214DF22B5002F045FB0221CA
:102DB0004DF22C5002F040FBFE214DF22D5002F05E
:102DC0003BFB03214DF22E5002F036FB10214DF259
:102DD0002F5002F031FB03214DF2305002F02CFB5A
:102DE00033214DF2315002F027FB03214DF23250D6
:102DF00002F022FB6D214DF2335002F01DFB002149
:102E00004FF4564002F018FB33214DF2016002F0FE
:102E100013FB00214DF2026002F00EFB34214DF253
:102E2000036002F009FB00214DF2046002F004FB94
:102E30003A214DF2056002F0FFFA00214DF20660E2
:102E400002F0FAFA4A214DF2076002F0F5FA002189
:102E50004DF2086002F0F0FA5C214DF2096002F0D8
:102E6000EBFA00214DF20A6002F0E6FA81214DF200
:102E70000B6002F0E1FA00214DF20C6002F0DCFA86
:102E8000A6214DF20D6002F0D7FA00214DF20E603E
:102E900002F0D2FAE5214DF20F6002F0CDFA0121E5
:102EA0004DF2106002F0C8FA13214DF2116002F0E9
:102EB000C3FA01214DF2126002F0BEFA54214DF224
:102EC000136002F0B9FA01214DF2146002F0B4FA75
:102ED00082214DF2156002F0AFFA01214DF2166029
:102EE00002F0AAFACA214DF2176002F0A5FA0221F7
:102EF0004DF2186002F0A0FA00214DF2196002F0C4
:102F00009BFA02214DF21A6002F096FA01214DF26D
:102F10001B6002F091FA02214DF21C6002F08CFA63
:102F200034214DF21D6002F087FA02214DF21E603D
:102F300002F082FA67214DF21F6002F07DFA022151
:102F40004DF2206002F078FA84214DF2216002F007
:102F500073FA02214DF2226002F06EFAA4214DF2C2
:102F6000236002F069FA02214DF2246002F064FA53
:102F7000B7214DF2256002F05FFA02214DF2266082
:102F800002F05AFACF214DF2276002F055FA0221E1
:102F90004DF2286002F050FADE214DF2296002F075
:102FA0004BFA02214DF22A6002F046FAF2214DF26C
:102FB0002B6002F041FA02214DF22C6002F03CFA43
:102FC000FE214DF22D6002F037FA03214DF22E6002
:102FD00002F032FA10214DF22F6002F02DFA032197
:102FE0004DF2306002F028FA33214DF2316002F0E8
:102FF00023FA03214DF2326002F01EFA6D214DF2E8
:10300000336002F019FA55214FF4704002F014FABF
:10301000AA214FF2010002F00FFA52214FF20200F2
:1030200002F00AFA08214FF2030002F005FA00212B
:103030004FF2040002F000FACC214FF4314002F0CC
:10304000FBF900214BF2011002F0F6F905214FF4D3
:10305000364002F0F1F970214FF4374002F0ECF9FC
:1030600070214BF2017002F0E7F901214FF4384072
:1030700002F0E2F903214BF6010002F0DDF9032131
:103080004BF6020002F0D8F903214BF6030002F0E0
:10309000D3F902214FF43C4002F0CEF900214BF667
:1030A000014002F0C9F900214BF6024002F0C4F9D8
:1030B000D0214FF4494002F0BFF902214CF6011033
:1030C00002F0BAF950214CF6021002F0B5F9502185
:1030D0004CF6031002F0B0F950214CF6041002F047
:1030E000ABF900214FF4545002F0A6F955214FF4EA
:1030F000685002F0A1F94FF4885002F083F978206B
:1031000002F00EFC4FF4245002F07CF901F0DBBB1E
:10311000FE48808849F2253188427DD147F6F0018A
:10312000E52002F089F94FF48071012002F084F962
:103130004FF4E061022002F07FF941F230010320F8
:1031400002F07AF90021042002F076F940F202211F
:10315000082002F071F90021092002F06DF9002128
:103160000A2002F069F900210C2002F065F9002123
:103170000D2002F061F900210F2002F05DF900211D
:10318000102002F059F90721112002F055F9002111
:10319000122002F051F90021132002F04DF9002114
:1031A000072002F049F941F29061102002F044F941
:1031B00040F22721112002F03FF99D21122002F058
:1031C0003BF94FF4C851132002F036F9252129208C
:1031D00002F032F90D212B2002F02EF907213020C8
:1031E00002F02AF940F20331312002F025F90321DF
:1031F000322002F021F940F20621352002F01CF9BC
:103200000821362002F018F940F20641372002F07A
:1032100013F94FF4417100E058E0382002F00CF946
:103220000721392002F008F940F202613C2002F047
:1032300003F908213D2002F0FFF80021502002F0A0
:10324000FBF8EF21512002F0F7F80021522002F0A4
:10325000F3F840F23F11532002F0EEF84FF427410B
:10326000602002F0E9F80121612002F0E5F8002178
:103270006A2002F0E1F80021802002F0DDF8002150
:10328000812002F0D9F80021822002F0D5F8002137
:10329000832002F0D1F80021842002F0CDF8002133
:1032A000852002F0C9F81021902002F0C5F84FF4F3
:1032B000C061922002F0C0F840F23311072002F002
:1032C000BBF82221002002F0B7F81FE78F48808862
:1032D00049F2283188427DD141F28F01EC2002F081
:1032E000ABF841F23421EF2002F0A6F84FF48071E0
:1032F000012002F0A1F84FF4E061022002F09CF8F6
:1033000041F23001032002F097F80021042002F07E
:1033100093F840F20221082002F08EF800210920E3
:1033200002F08AF800210A2002F086F801210C2020
:1033300002F082F800210D2002F07EF800210F201B
:1033400002F07AF80021102002F076F8072111200F
:1033500002F072F80021122002F06EF80021132012
:1033600002F06AF80121072002F066F8322002F02C
:10337000B9FA41F29041102002F05EF840F22721A4
:10338000112002F059F8322002F0ACFA8A21122002
:1033900002F052F8322002F0A5FA4FF4D051132077
:1033A00002F04AF80621292002F046F80D212B20D0
:1033B00002F042F8322002F095FA0021202002F0BB
:1033C0003BF80021212002F037F8322002F08AFA7F
:1033D000002100E075E0302002F02EF840F2046198
:1033E000312002F029F840F20531322002F024F8B1
:1033F0000021352002F020F840F60941362002F085
:103400001BF84FF40171372002F016F840F2013139
:10341000382002F011F840F20771392002F00CF860
:1034200000213C2002F008F840F60A213D2002F07D
:1034300003F8322002F056FA0021502001F0FCFF80
:10344000EF21512001F0F8FF0021522001F0F4FF9C
:1034500040F23F11532001F0EFFF4FF4274160206D
:1034600001F0EAFF0121612001F0E6FF00216A205E
:1034700001F0E2FF0021802001F0DEFF0021812029
:1034800001F0DAFF0021822001F0D6FF0021832025
:1034900001F0D2FF0021842001F0CEFF0021852021
:1034A00001F0CAFF1021902001F0C6FF4FF4C06167
:1034B000922001F0C1FF40F23311072001F0BCFF60
:1034C00024E61248808849F2203188427ED10021CA
:1034D000084601F0B1FF4FF48071012001F0ACFF0C
:1034E0004FF4E061022001F0A7FF41F23001032018
:1034F00001F0A2FF0021042001F09EFF40F2022112
:10350000082001F099FF0021092001E0F8000020C7
:1035100001F092FF00210A2001F08EFF01210C2012
:1035200001F08AFF00210D2001F086FF00210F200D
:1035300001F082FF322002F0D5F940F2011107209C
:1035400001F07AFF322002F0CDF94FF486511020BD
:1035500001F072FF0721112001F06EFF4FF4887116
:10356000122001F069FF4FF43061132001F064FF75
:103570000021292001F060FF44F210012B2001F00E
:103580005BFF0021502001F057FFEF21512001F097
:1035900053FF0021522001F04FFF40F23F11532012
:1035A00001F04AFF4FF41C51602001F045FF01215A
:1035B000612001F041FF00216A2001F03DFF002160
:1035C000802001F039FF0021812000E030E001F08F
:1035D00033FF0021822001F02FFF0021832001F022
:1035E0002BFF0021842001F027FF0021852001F01E
:1035F00023FF1021902001F01FFF0021922001F0F5
:103600001BFF0121932001F017FF4FF488719520D3
:1036100001F012FF0021972001F00EFF00219820F9
:1036200001F00AFF40F27311072001F005FF6DE57C
:10363000FE48808849F2313188427DD141F214013F
:10364000E72001F0F9FE4FF48071012001F0F4FE53
:103650004FF40071022001F0EFFE41F23801032027
:1036600001F0EAFE40F20221082001F0E5FE00210F
:10367000092001F0E1FE00210A2001F0DDFE002119
:103680000C2001F0D9FE00210D2001F0D5FE002113
:103690000F2001F0D1FE0021102001F0CDFE072106
:1036A000112001F0C9FE0021122001F0C5FE002109
:1036B000132001F0C1FEC82002F014F941F290611C
:1036C000102001F0B9FE40F22721112001F0B4FED4
:1036D000322002F007F90C21122001F0ADFE322059
:1036E00002F000F94FF40061132001F0A5FE112152
:1036F000292001F0A1FE0B212B2001F09DFE32209C
:1037000002F0F0F80021202001F096FE40F23F1177
:10371000212001F091FE0021302001F08DFE4FF4B8
:103720008371312001F088FE0021322001F084FEF7
:103730004FF40171352000E064E001F07DFE41F2BC
:103740000A61362001F078FE40F20771372001F05F
:1037500073FE4FF48371382001F06EFE40F2077162
:10376000392001F069FE40F202413C2001F064FE84
:1037700040F60F413D2001F05FFE0021502001F096
:103780005BFEEF21512001F057FE0021522001F095
:1037900053FE40F23F11532001F04EFE4FF41C51F6
:1037A000602001F049FE0121612001F045FE002169
:1037B0006A2001F041FE0021802001F03DFE002141
:1037C000812001F039FE0021822001F035FE002128
:1037D000832001F031FE0021842001F02DFE002124
:1037E000852001F029FE1021902001F025FE4FF4E4
:1037F000C061922001F020FE40F23311072001F059
:103800001BFE83E48948808845F2084188427DD1C7
:103810004FF48071012001F00FFE4FF4E0610220AF
:1038200001F00AFE41F23001032001F005FE002103
:10383000042001F001FE40F20721082001F0FCFD08
:103840000021092001F0F8FD00210A2001F0F4FD1B
:1038500000210C2001F0F0FD00210D2001F0ECFD15
:1038600000210F2001F0E8FD142002F03BF841F2A6
:10387000B061102001F0E0FD0121112001F0DCFD1C
:103880000121172001F0D8FD4FF49C71122001F0A6
:10389000D3FD4FF40061132001F0CEFD0921292052
:1038A00001F0CAFD09212A2001F0C6FD0021A42053
:1038B00001F0C2FD0021502001F0BEFDEF2151209A
:1038C00001F0BAFD0021522001F0B6FD40F23F1197
:1038D000532001F0B1FD4FF41C51602001F0ACFD0C
:1038E0000121612001F0A8FD00216A2001F0A4FD62
:1038F0000021802001F0A0FD0021812001F09CFD2D
:103900000021822001F098FD002100E024E08320C6
:1039100001F092FD0021842001F08EFD0021852020
:1039200001F08AFD1321902001F086FD00219220F4
:1039300001F082FD0321932001F07EFD4FF4887198
:10394000952001F079FD40F27311072001F074FD1C
:10395000322001F0C7FFB8E43448808841F20551B5
:1039600088427DD10021072001F066FD322001F060
:10397000B9FF4FF48E71122001F05EFD0121A420E9
:1039800001F05AFD0F21082001F056FD08210A2000
:1039900001F052FD08210D2001F04EFD40F20771AB
:1039A000302001F049FD0721312001F045FD40F2B2
:1039B0000361322001F040FD4FF4E061332001F05B
:1039C0003BFD40F20221342001F036FD022135207A
:1039D00001F032FD41F60F71362001F02DFD40F26D
:1039E0000771372001F028FD0021382001F024FD67
:1039F0000021392001F020FD40F207713A2001F04A
:103A00001BFD00213B2001F017FD07213C2001F0A8
:103A100013FD00213D2001F00FFD322001F062FF77
:103A20000121072001F008FD012101E0F80000203C
:103A3000172001F001FD322001F054FF4FF4BD5179
:103A4000102001F0F9FC40F21721112001F0F4FCE4
:103A50004FF48F71122001F0EFFC4FF4706100E021
:103A600098E0132001F0E8FC00212A2001F0E4FC9A
:103A70000A21292001F0E0FC4FF49F71122001F08F
:103A8000DBFC0021502001F0D7FCEF21512001F098
:103A9000D3FC0021522001F0CFFC40F23F11532013
:103AA00001F0CAFC4FF41C51602001F0C5FC01215B
:103AB000612001F0C1FC00216A2001F0BDFC002161
:103AC000802001F0B9FC0021812001F0B5FC00212B
:103AD000822001F0B1FC0021832001F0ADFC002127
:103AE000842001F0A9FC0021852001F0A5FC132110
:103AF000902001F0A1FC4FF44071922001F09CFC59
:103B00000521932001F098FC0021952001F094FC00
:103B10000021972001F090FC0021982001F08CFCFE
:103B20004FF48071012001F087FC4FF4E061022026
:103B300001F082FC41F23801032001F07DFC0021FC
:103B4000042001F079FC00210C2001F075FC00211B
:103B50000F2001F071FC0021202001F06DFC0021FC
:103B6000212001F069FC2121072001F065FC1420CF
:103B700001F0B8FE6121072001F05EFC142001F085
:103B8000B1FE40F27311072001F056FC142001F041
:103B9000A9FE95E4FE4880884BF2055188427CD10D
:103BA0000021084601F048FC0021084601F044FCD1
:103BB0000021084601F040FC0021084601F03CFCD1
:103BC0000121A42001F038FC142001F08BFE4FF4F9
:103BD0001C51602001F030FC40F20221082001F06D
:103BE0002BFC4FF40571302001F026FC43F21571D7
:103BF000312001F021FC40F20461322001F01CFC74
:103C000040F61661332001F017FC42F211213420F6
:103C100001F012FC4FF4A851352001F00DFC48F2E0
:103C20000751362001F008FC41F20741372001F02E
:103C300003FC41F20341382001F0FEFB2021392032
:103C400001F0FAFB1A21902001F0F6FB0021102070
:103C500001F0F2FB0721112001F0EEFB0021122000
:103C600001F0EAFB0021132001F0E6FB142001F033
:103C700039FE4FF4E661102001F0DEFB40F237110F
:103C8000112001F0D9FB142001F02CFE4FF4DC715F
:103C9000122001F0D1FB142000E085E001F022FEAB
:103CA0004FF47061132001F0C7FB80212A2001F03E
:103CB000C3FB4821292001F0BFFB142001F012FEB4
:103CC0004FF48071012001F0B7FB4FF4E061022056
:103CD00001F0B2FB41F23801032001F0ADFB40F2EC
:103CE0000221082001F0A8FB00210A2001F0A4FB1A
:103CF00000210C2001F0A0FB00210D2001F09CFB15
:103D000030210E2001F098FB0021502001F094FB9F
:103D1000EF21512001F090FB0021522001F08CFB9B
:103D200040F23F11532001F087FB4FF41C516020FB
:103D300001F082FB0121612001F07EFB00216A205D
:103D400001F07AFB1121902001F076FB4FF4C06165
:103D5000922001F071FB40F20241932001F06CFBD4
:103D60000221942001F068FB142001F0BBFD012129
:103D7000072001F061FB142001F0B4FD6121072050
:103D800001F05AFB40F27311072001F055FB0021AE
:103D9000202001F051FB0021212001F04DFB2221C8
:103DA000002001F049FB42E4794880884CF205513B
:103DB00088427CD10021084601F03EFB00210846E4
:103DC00001F03AFB142001F08DFD0021084601F0BE
:103DD00033FB0021084601F02FFB0021084601F0CB
:103DE0002BFB0021084601F027FB0121A42001F054
:103DF00023FB142001F076FD4FF41C51602001F0EC
:103E00001BFB40F60601082001F016FB40F203718F
:103E1000302001F011FB0121312001F00DFB0421C4
:103E2000322001F009FB4FF48171332001F004FBD3
:103E30004FF44071342001F0FFFA40F203113520B5
:103E400001F0FAFA1F21362001F0F6FA40F2037170
:103E5000372001F0F1FA0121382001F0EDFA0421B8
:103E6000392001F0E9FA1521902001F0E5FA4FF42C
:103E70008261102001F0E0FA40F24721112001F0A8
:103E8000DBFA4FF4DE71122001F0D6FA4FF46061D4
:103E9000132001F0D1FA782001F024FD4FF4807155
:103EA000012001F0C9FA4FF40071022000E052E055
:103EB00001F0C2FA41F23001032001F0BDFA0821FD
:103EC0000A2001F0B9FA00210C2001F0B5FA2021F6
:103ED0000E2001F0B1FA00210F2001F0ADFA00210F
:103EE000202001F0A9FA0021212001F0A5FA3D21AE
:103EF0002A2001F0A1FA142001F0F4FC2D21292040
:103F000001F09AFA0021502001F096FA4DF2EF01EB
:103F1000512001F091FA0021522001F08DFA40F277
:103F20003F11532001F088FA0021612001F084FA4A
:103F300000216A2001F080FA4FF44071922001F0D4
:103F40007BFA0521932001F077FA4FF48071072066
:103F500001F072FA55E40E48808848F689118842CB
:103F60007ED10121002001F067FA4AF6A401032066
:103F700001F062FA00210C2001F05EFA40F60C011B
:103F80000D2001F059FA4FF42C510E2002E00000F0
:103F9000F800002001F050FAB0211E2001F04CFA88
:103FA00042F63F31012001F047FA4FF4C061022090
:103FB00001F042FA0021102001F03EFA46F27801A9
:103FC000112001F039FA0021052001F035FA002115
:103FD000062001F031FA4EF61C71162001F02CFA81
:103FE0000321172001F028FA40F23321072001F0C5
:103FF00023FA00210B2001F01FFA00210F2001F00D
:104000001BFA0021412001F017FA0021422001F0A3
:1040100013FA0021482001F00FFA40F23F11492025
:1040200001F00AFA00214A2001F006FA00214B2093
:1040300001F002FA4FF46F41442001F0FDF9002134
:10404000452001F0F9F940F23F11462001F0F4F962
:1040500040F20771302001F0EFF94FF4017100E0F8
:1040600040E0312001F0E8F94FF40171322001F015
:10407000E3F940F20251332001F0DEF940F207513A
:10408000342001F0D9F94FF40171352001F0D4F951
:104090004FF40171362001F0CFF940F20251372080
:1040A00001F0CAF940F202313A2001F0C5F940F2BC
:1040B00002313B2001F0C0F90021232001F0BCF9BE
:1040C0000021242001F0B8F94FF40041252001F02F
:1040D000B3F900214F2001F0AFF900214E2001F08B
:1040E000ABF9F0E3FE48808844F2315188427DD13B
:1040F0000121002001F0A0F90A2001F0F3FB41F2B8
:104100002861102001F098F90E21122001F094F995
:1041100040F63921132001F08FF90A2001F0E2FB6B
:104120004021112001F088F95021152001F084F977
:104130000A2001F0D7FB1E21122001F07DF90A2090
:1041400001F0D0FB4FF4B151102001F075F942F6A7
:104150003921132001F070F90A2001F0C3FB4FF45C
:104160008071012001F068F94FF44071022001F0E4
:1041700063F941F23801032001F05EF940F20221B7
:10418000082001F059F908210A2001F055F9002111
:10419000302001F051F940F20241312001F04CF998
:1041A0004FF48371322001F047F940F2035133207C
:1041B00001F042F94FF48271342001F03DF940F2F0
:1041C0000131352001F038F940F20771362001F055
:1041D00033F940F20531372001F02EF94FF4027126
:1041E000382001F029F940F60B7100E03CE039205D
:1041F00001F022F90221412001F01EF94FF41C5177
:10420000602001F019F90121612001F015F94FF446
:104210000471902001F010F94FF48571922001F0A3
:104220000BF90421932001F007F94FF48071A020CD
:1042300001F002F90121072001F0FEF821210720F9
:1042400001F0FAF82321072001F0F6F833210720C6
:1042500001F0F2F840F23311072001F0EDF80021EF
:10426000A02001F0E9F82EE39D48808844F2355102
:1042700088427CD13021152001F0DEF810219A20EF
:1042800001F0DAF82021112001F0D6F843F228419C
:10429000102001F0D1F80221122001F0CDF841F2F6
:1042A0003801132001F0C8F8282001F01BFB12216F
:1042B000084601F0C1F8282001F014FB43F2204128
:1042C000102001F0B9F843F23801132001F0B4F8DE
:1042D000462001F007FB0021302001F0ADF840F24C
:1042E0000241312001F0A8F840F20731322001F0FC
:1042F000A3F84FF44171332001F09EF804213420DB
:1043000001F09AF840F20141352001F095F840F2B1
:104310000771362001F090F840F20531372001F0A6
:104320008BF84FF4C261382001F086F84FF4C26177
:10433000392001F081F84FF48071012001F07CF800
:104340004FF44071022001F077F841F23001032070
:1043500001F072F840F60801082001F06DF808211C
:104360000A2001F069F84FF41C51602000E033E0AE
:1043700001F062F80121612001F05EF84FF49F71B5
:10438000902001F059F84FF48071922001F054F818
:104390004FF48071932001F04FF84FF44051A0206A
:1043A00001F04AF81021A32001F046F8012107206E
:1043B00001F042F82121072001F03EF823210720D7
:1043C00001F03AF83321072001F036F840F23311BA
:1043D000072001F031F876E24148808841F6631108
:1043E0008842F8D1E22001F00DF84FF480703D4989
:1043F0000861400048611D203B4908608020394920
:10440000486108618000086140100861400048610F
:1044100002203549086080203249486108618000E7
:104420000861401008614000486104202E4908607E
:1044300080202C494861086180000861642001F0F7
:104440006FFAE02000F0DEFF4FF48070254908612C
:1044500040004861012024490860802021494861CA
:104460000861800008610A2001F03CFAE02000F0B9
:10447000C9FF4FF480701B49086140004861032068
:104480001949086080201749486108618000086167
:104490000C2001F027FA012000F0B4FF0A2001F0FF
:1044A00021FAE62000F0AEFF4FF480700D4908615C
:1044B000400048612F200C4908608020094948616C
:1044C0000861800008614010086140004861FF20D9
:1044D000054908608020034948610861800005E0C3
:1044E000F8000020001001400C0C01400861401051
:1044F000086140004861FF20F84908608020F849C1
:104500004861086180000861B02000F07BFF4FF433
:104510008070F3490861400048612020EF4908603D
:104520008020EF49486108618000086140100861FF
:10453000400048610020E94908608020E84948615E
:104540000861800008614010086140004861032054
:10455000E24908608020E249486108618000086102
:10456000401008614000486140F21F30DB4908609C
:104570008020DB49486108618000086140100861C3
:10458000400048610120D54908608020D449486135
:10459000086180000861401008614000486140F2F5
:1045A000DF10CE4908608020CD4948610861800055
:1045B000086140100861400048610020C749086058
:1045C0008020C7494861086180000861B42000F07C
:1045D00019FF4FF48070C24908614000486104200F
:1045E000BE4908608020BE494861086180000861BA
:1045F000401008614000486140F21F40B749086020
:104600008020B74948610861800008614010086156
:10461000400048610020B14908608020B0494861ED
:1046200008618000086140100861400048612E2048
:10463000AA4908608020AA49486108618000086191
:1046400040100861400048610020A44908608020B3
:10465000A34948610861800008614010086140007A
:10466000486100209D49086080209D49486108619B
:1046700080000861401008614000486100209749AF
:1046800008608020964948610861800008614010F8
:1046900008614000486100209049086080209049EE
:1046A0004861086180000861B62000F0ABFE4FF45D
:1046B00080708B490861400048610220874908608A
:1046C00080208749486108618000086140100861C6
:1046D000400048614FF403708049086080208049A1
:1046E000486108618000086140100861400048612D
:1046F00000207A490860802079494861086180007B
:104700000861401008614000486117207349086043
:104710008020734948610861800008614010086189
:104720004000486115206D49086080206C4948614F
:104730000861800008614010086140004861002065
:104740006649086080206649486108618000086108
:1047500040100861400048610020604908608020E6
:104760005F494861086180000861F02000F04AFE5E
:104770004FF480705A49086140004861032057494E
:10478000086080205649486108618000086129203E
:1047900000F038FED02000F035FE4FF48070504914
:1047A00008614000486100204C49086080204C4965
:1047B0004861086180000861BE2000F023FE4FF4CC
:1047C00080704749086140004861052043490860FE
:1047D00080204349486108618000086140100861F9
:1047E00040004861FE203D49086080203C49486106
:1047F00008618000086140100861400048610120A4
:1048000036490860802036494861086180000861A7
:104810004010086140004861002030490860802055
:104820002F4948610861800008614010086140001C
:1048300048610020294908608020294948610861B1
:104840008000086140100861400048610020234951
:104850000860802022494861086180000861B82012
:1048600000F0D0FD4FF480701D49086140004861A0
:1048700003201A49086080201949486108618000B6
:104880000861401008614000486101201349086038
:10489000802013494861086180000861BA2000F057
:1048A000B1FD4FF480700E4908614000486101205D
:1048B0000A49086080200A4948610861800008614F
:1048C000642000F051F80020FBF714FF0120054997
:1048D00008604FF6FF70FBF7C9FE10BD0C0C0140DD
:1048E00000100140A801224210B54FF0883017494E
:1048F0000860091D0860002014490C310860881503
:10490000134908614000486140204861114880888F
:1049100048F68911884202D1022001F001F80B48C3
:104920000830006884B2402009490861C00008616D
:104930004FF0333005490860091D08604FF6FF70DD
:1049400002490C310860204610BD0000000C0140F7
:1049500000100140F800002010B50446204600F089
:1049600051FDFFF7C1FF10BD2DE9F0410446BE2007
:1049700000F048FD4FF480702D4908614000486107
:1049800005202C4908608020294948610861800081
:1049900008614010086140004861204601F011F9AB
:1049A00005464FF06632244B01F01EF9074601F030
:1049B000DBF82049086080201D49486108618000BB
:1049C00008614010086140004861012019490860F1
:1049D0008020174948610861800008614010086123
:1049E00040004861FF201349086080201049486159
:1049F00008618000086140100861400048610020A3
:104A00000C49086080200A494861086180000861FB
:104A1000401008614000486100200649086080207D
:104A200003494861086180000861BDE8F081000029
:104A3000001001400C0C014066660440F0B50546CC
:104A400000240027FC48807901280BD1FA4880888F
:104A500046F60401884205D0F748808841F6631184
:104A6000884208D1F4488079F0B9F348808841F64B
:104A70006311884218D1082D15D2DFE805F004062D
:104A8000080A0C0E101206250DE007250BE0042580
:104A900009E0052507E0012505E0002503E00325E1
:104AA00001E0022500BF00BFE348808849F24131A0
:104AB000884217D0E048808846F60401884211D029
:104AC000DD48808845F2103188420BD0DA48808872
:104AD00045F21051884205D0D748808841F66311CD
:104AE00088427DD1082D1CD2DFE805F00406090CB0
:104AF0000F12151800BF14E044F0800411E044F0D8
:104B000040040EE044F0C0040BE044F0200408E050
:104B100044F0600405E044F0A00402E044F0E00446
:104B200000BF00BFC448808845F21051884202D1BE
:104B30004FF4585700E03627BF48808845F21031BF
:104B400088420DD0BC48808845F21051884207D079
:104B5000B948808841F66311884201D044F00804C6
:104B6000B548808846F60401884201D144F0020429
:104B70002146384600F060FCAF48808841F663115A
:104B800088421DD004F0200068B1AB480088AA49D3
:104B90004988884214DAA84806884088A6490880CF
:104BA000084646800CE0A4480088A349498888420A
:104BB00006DDA148068840889F490880084646804F
:104BC0009D48808845F2105188427DD19A49488994
:104BD00000F018FC4FF4807098490861400000E034
:104BE00030E148610020964908608020934948617F
:104BF00008618000086190494989491C88B200F029
:104C000001FC4FF480708D4908614000486100202C
:104C10008B490860802089494861086180000861EB
:104C200085494989891C88B200F0ECFB4FF48070FB
:104C300082490861400048617F480088401E001298
:104C40007F49086080207D494861086180000861D3
:104C500079494989C91C88B200F0D4FB4FF48070AF
:104C6000764908614000486173480078401EC0B230
:104C700073490860802071494861086180000861BB
:104C80006D49888900F0BEFB4FF480706B49086164
:104C90004000486100206A490860802067494861F7
:104CA00008618000086164498989491C88B200F064
:104CB000A9FB4FF480706149086140004861002001
:104CC0005F490860802000E035E05C494861086188
:104CD0008000086158498989891C88B200F092FBDC
:104CE0004FF480705549086140004861524840883F
:104CF000401E0012524908608020504948610861F6
:104D0000800008614C498989C91C88B200F07AFB8F
:104D10004FF48070494908614000486146488078F6
:104D2000401EC0B24649086080204449486108617D
:104D300080000861ADE04049488900F063FB4FF412
:104D400080703E4908614000486100203C4908608D
:104D500080203A494861086180000861401008617C
:104D6000400048610020364908608020334948618E
:104D700008618000086140100861400048612E48C9
:104D80000088401E00122E49086080202B4948618F
:104D900008618000086140100861400048612648B1
:104DA0000078401EC0B2264908608020234948612F
:104DB0000861800008612049888900F023FB4FF4D6
:104DC00080701E4908614000486100201C4908604D
:104DD00080201A494861086180000861401008611C
:104DE000400048610020164908608020134948614E
:104DF00008618000086140100861400048610E4869
:104E00004088401E00120E49086080200B4948610E
:104E10000861800008614010086140004861064850
:104E20008078401EC0B2064908608020034948616E
:104E30000861800008612CE0F800002000100140AB
:104E40000C0C0140082D1CD2DFE805F004070A0D08
:104E50000F12151844F0300413E044F0100410E071
:104E600044F020040DE000BF0BE044F0380408E0FB
:104E700044F0280405E044F0180402E044F008047B
:104E800000BF00BF032744F480542146384600F099
:104E9000D3FAF0BD30B504460D46EA48808849F2A1
:104EA0004131884205D0E748808845F21031884278
:104EB00040D1E449488900F0A5FA4FF48070E249F6
:104EC0000861400048612012E04908608020DE4906
:104ED0004861086180000861401008614000486135
:104EE000E0B2DA4908608020D74948610861800053
:104EF0000861D449888900F085FA4FF48070D2495E
:104F00000861400048612812D04908608020CE49DD
:104F100048610861800008614010086140004861F4
:104F2000E8B2CA4908608020C7494861086180002A
:104F3000086186E1C348808846F60401884249D169
:104F4000C0488079012804D1BE480088401E001B5B
:104F500084B2BC49488900F055FA4FF48070BA49D0
:104F60000861400048612012B84908608020B649B5
:104F70004861086180000861401008614000486194
:104F8000E0B2B24908608020AF4948610861800002
:104F90000861AC49888900F035FA4FF48070AA495D
:104FA0000861400048612812A84908608020A6498D
:104FB0004861086180000861401008614000486154
:104FC000E8B2A249086080209F49486108618000DA
:104FD000086136E19B48808841F6631188427DD1A3
:104FE0009848807900283FD196480088401E001BD1
:104FF00084B29449488900F005FA4FF480709249D0
:1050000008614000486100209049086080208E4976
:1050100048610861800008614010086140004861F3
:1050200000208A4908608020874948610861800023
:1050300008614010086140004861201283490860FF
:105040008020814948610861800008614010086142
:1050500040004861E0B27D49086080207A4948619B
:1050600008618000086141E07649488900F0CAF98A
:105070004FF4807074490861400048612012734900
:105080000860802070494861086180000861401014
:10509000086140004861E0B26C49086080206A49BC
:1050A0004861086180000861401008614000486163
:1050B00064480088401E00126449086080206249EC
:1050C0004861086180000861401008614000486143
:1050D0005C480078401EC0B25C4900E047E00860D0
:1050E00080205949486108618000086155498889D4
:1050F00000F088F94FF4807053490861400048611E
:1051000028125249086080204F4948610861800098
:1051100008614010086140004861E8B24B490860EE
:105120008020494948610861800008614010086199
:105130004000486143484088401E001243490860CF
:105140008020414948610861800008614010086181
:10515000400048613B488078401EC0B23B4908602F
:1051600080203949486108618000086169E035485C
:10517000808845F21051884250D13249488900F068
:1051800041F94FF4807030490861400048612012B5
:105190002E49086080202C49486108618000086120
:1051A00028494989491C88B200F02CF94FF48070D5
:1051B0002549086140004861E0B224490860802028
:1051C000214948610861800008611E49888900F012
:1051D00019F94FF480701C49086140004861281299
:1051E0001A490860802018494861086180000861F8
:1051F00014498989491C88B200F004F94FF4807081
:105200001149086140004861E8B2104908608020F7
:105210000D49486108618000086112E00948807901
:10522000012804D107480088401E001B84B20549AC
:105230004889214600F000F902498889294600F092
:10524000FBF830BDF8000020001001400C0C0140BC
:105250002DE9F84F80460E4617461C46B3462046B9
:10526000E31704EB5373DB1021464FEAE47C04EBB5
:105270005C7C4FEAEC0CA4EBCC0CBCF1000F02D030
:105280004FF0010C01E04FF0000C6344224604EBA8
:10529000D27C4FEA6C0C03FB0CF3DBB20093A7F15A
:1052A0002000C7B2002556E00C2C07D107EB4700C1
:1052B0002B4901EB800010F8059013E0102C05D16C
:1052C000284800EB071010F805900BE0182C07D1C8
:1052D00007EBC700244901EB800010F8059001E0BE
:1052E000BDE8F88F4FF0000A2FE009F0800030B1E0
:1052F0001E48028831464046FBF754FB07E00A98F7
:1053000028B91B48028831464046FBF74BFB4FEA61
:1053100049604FEA1069701C86B216484088B04256
:1053200000DCDDE7A6EB0B00A0420AD15E4608F1E7
:1053300001001FFA80F80F480088404500DCCFE7E5
:1053400006E00AF1010000F0FF0ABAF1080FCCDB19
:1053500000BF681CC5B200988542A5DB00BFBFE74F
:1053600062630008D6670008C66D00080A000020C6
:105370000C000020F80000202DE9F84704460D46F7
:1053800090469946DDE9096704F0FF0A08EB04003E
:105390001FFA80F809EB05001FFA80F916E0444572
:1053A00002DB5446A81985B24D4500DB14E001200C
:1053B00000903A78334629462046FFF749FF3046A9
:1053C00006EBD07104EB61018CB27F1C38787E282B
:1053D00002DC38782028E2DA00BFBDE8F887000058
:1053E0004FF48071054A1161490051610449086018
:1053F00080215161116189001161704700100140E5
:105400000C0C01404FF48071054A51614900516113
:105410000449086080215161116189001161704760
:10542000001001400C0C014000B502490889FFF74B
:10543000E9FF00BDF800002010B504460B462046E9
:10544000FFF7E0FF4FF480700549086140004861B4
:10545000044803608020486108618000086110BD35
:10546000001001400C0C01402548806940F0040008
:10547000234988610846806940F010008861084629
:10548000806940F0200088611E48006820F00F000D
:105490001C4908600846006840F00300086019488D
:1054A0000830006840F480701649083108601648DA
:1054B000006820F47F00144908600846006840F442
:1054C0004C1008600846C06840F01000C8600846EC
:1054D000C06840F02000C8600C48006820F470608C
:1054E0000A4908600846006840F4407008600748B0
:1054F0000C30006840F0040004490C31086070472B
:105500000010024004080140001001400014014056
:1055100000B5002015490861C860142048610020CA
:105520008861C8610846006840F0010008600846CC
:1055300040680F4908400D494860084600680D4919
:1055400008400A4908600846006820F48020086086
:105550000846406820F4FE00486000208860002172
:105560004FF0006000F058F800BD0000001002404D
:105570000000FFF8FFFFF6FE2DE9F04107468846E0
:1055800014461D46284600F033F8C5F1040007FA1A
:1055900000F60F20284100EA0800064306F00F0637
:1055A000E21704EBD2625211920002F1E022D2F82B
:1055B00000212146E31704EBD3635B11A4EB431CEA
:1055C000012303FA0CF31A432046E31704EBD363D9
:1055D0005B119B0003F1E023C3F800210348005D49
:1055E00040EA061001490855BDE8F08100E400E0FA
:1055F0000146072323EA01021202054B18684FF601
:10560000FF031840034B18431043014B18607047C9
:105610000CED00E00000FA05024A0A400243024B8A
:105620001A60704780FFFF1F08ED00E00020064968
:105630000860486088600861C860044848610448A0
:1056400088610248C861704710000020CDCC4C3EF4
:105650000AD7233D2DE9F047044626480460024658
:105660005168106800F008FE224988600846C16849
:105670004FF0804000F02AFD82461E488168504667
:1056800000F0F0FD81461B480169484600F0AAFB86
:1056900080461848C169404600F018FD0646154A84
:1056A0009168906900F012FD8146124AD1689068B5
:1056B00000F0E2FD82460F484169504600F006FDC9
:1056C0008046494600F08EFB0746314600F08AFBD3
:1056D000054608494868294600F084FB05494860AA
:1056E0000846C068086108468068C8600846406887
:1056F000BDE8F0871000002030B504460025FFF714
:1057000007FF1F48006840F480301D49086000BF53
:105710001B480068400C0028FAD04FF480601849FC
:105720004860A01EC4B20846406840EA8440486011
:105730000846406840F4803048601248006840F0F5
:105740003200104908600E48006840F080700C4933
:10575000086000BF0A480068400E0028FAD00848D8
:10576000406840F002000649486005E0044840688F
:10577000C0F3870505F00305022DF7D130BD000009
:1057800000100240002002401D4A926942F400626B
:105790001B4B9A611B4A126822F00F02194B1A60C8
:1057A0001A46126842F00B021A60174A1080121F44
:1057B0001180154A143A128842F07002124B143BC1
:1057C0001A801A46128842F008021A800E4A0C3AD1
:1057D000128842F001020C4B0C3B1A800A4A183224
:1057E000128842F40042084B18331A808022064B7C
:1057F0002C3B1A801A46128842F001021A80704728
:1058000000100240040801402C2C01401D49098869
:1058100001F0200111B31B49091D0988C8B21A49BA
:10582000098801F40041C9B91749098801F4804188
:1058300061B10A2803D00021134A118020E01249E7
:10584000098841F40041104A118019E00D2806D161
:105850000D49098841F480410B4A118010E00A4942
:105860000988C1F30D01094A505407490988491CA8
:10587000054A118011460988C72901DD00211180E0
:105880007047000000380140080000203000002070
:1058900030380A2801D201207047002070470146A5
:1058A00000BF70474FF0E021096921F004014FF07B
:1058B000E0221161C21700EB5272C2F3C702074B1C
:1058C0001A701946097801EB4102C2EBC1114FF67B
:1058D000FF7202EAC101024A1180704700000020F5
:1058E0000200002001460D4A12884A434FF0E0238F
:1058F0005A6100229A6101221A6100BF4FF0E02232
:10590000106900F001021AB100F48032002AF5D0CB
:1059100000224FF0E0231A619A61704702000020D4
:1059200001460D4A12784A434FF0E0235A610022A3
:105930009A6101221A6100BF4FF0E022106900F065
:1059400001021AB100F48032002AF5D000224FF093
:10595000E0231A619A6170470000002000BF054AE9
:10596000128802F04002002AF9D0C2B2014B1B1D7E
:105970001A8070470038014086B00920FFF7BCFE4E
:105980004FF41651482000F081F84820FFF78AFFB5
:10599000FFF76AFDFBF7B8F9FAF724FEFFF746FEBA
:1059A000002140F28330FFF7EFFE4FF478402749A3
:1059B00008802748828827A103A8FAF735FCA0238E
:1059C000F02219460020FAF775FF25A018210B4692
:1059D000C822CDE9001028211E20FFF7CDFC23A00E
:1059E00010210B46C822CDE9001046211E20FFF7EA
:1059F000C3FC21A010210B46C822CDE900105A217A
:105A00001E20FFF7B9FC03A810210B46C822CDE9E0
:105A100000106E211E20FFF7AFFC002411E01A4891
:105A2000FFF718FE064600F001FBC0F5A07085B236
:105A3000A0B200222946FAF7B5FFC820FFF752FFAF
:105A4000641CF02CEBDB00BFFEE700000A00002026
:105A5000F80000204C43442049443A253034580093
:105A60005049442054455354000000006279207688
:105A70006963746F72000000414C49454E54454BB8
:105A8000204D494E49000000000020432DE9F05F01
:105A900005460E46300100F005FB81462E4905FB08
:105AA00001F000F0FFFA8246494600F0FDF9074692
:105AB000384600F0D7FA84B2204600F0F3FA834665
:105AC000394600F0CFFB82464FF0834100F0FEFAEA
:105AD000814600F0C7FA80464FF6FF7000EA0414D2
